{
  "_format": "hh-sol-artifact-1",
  "contractName": "CrowdFunding",
  "sourceName": "contracts/CrowdFunding.sol",
  "abi": [
    {
      "inputs": [
        {
          "internalType": "uint256",
          "name": "_projectTax",
          "type": "uint256"
        }
      ],
      "stateMutability": "nonpayable",
      "type": "constructor"
    },
    {
      "anonymous": false,
      "inputs": [
        {
          "indexed": false,
          "internalType": "uint256",
          "name": "id",
          "type": "uint256"
        },
        {
          "indexed": false,
          "internalType": "string",
          "name": "actionType",
          "type": "string"
        },
        {
          "indexed": true,
          "internalType": "address",
          "name": "executor",
          "type": "address"
        },
        {
          "indexed": false,
          "internalType": "uint256",
          "name": "timestamp",
          "type": "uint256"
        }
      ],
      "name": "Action",
      "type": "event"
    },
    {
      "inputs": [
        {
          "internalType": "uint256",
          "name": "id",
          "type": "uint256"
        }
      ],
      "name": "backProject",
      "outputs": [
        {
          "internalType": "bool",
          "name": "",
          "type": "bool"
        }
      ],
      "stateMutability": "payable",
      "type": "function"
    },
    {
      "inputs": [],
      "name": "balance",
      "outputs": [
        {
          "internalType": "uint256",
          "name": "",
          "type": "uint256"
        }
      ],
      "stateMutability": "view",
      "type": "function"
    },
    {
      "inputs": [
        {
          "internalType": "uint256",
          "name": "_taxPct",
          "type": "uint256"
        }
      ],
      "name": "changeTax",
      "outputs": [],
      "stateMutability": "nonpayable",
      "type": "function"
    },
    {
      "inputs": [
        {
          "internalType": "string",
          "name": "title",
          "type": "string"
        },
        {
          "internalType": "string",
          "name": "description",
          "type": "string"
        },
        {
          "internalType": "string",
          "name": "imageURL",
          "type": "string"
        },
        {
          "internalType": "uint256",
          "name": "amount",
          "type": "uint256"
        },
        {
          "internalType": "uint256",
          "name": "expiresAt",
          "type": "uint256"
        }
      ],
      "name": "createProject",
      "outputs": [
        {
          "internalType": "bool",
          "name": "",
          "type": "bool"
        }
      ],
      "stateMutability": "nonpayable",
      "type": "function"
    },
    {
      "inputs": [
        {
          "internalType": "uint256",
          "name": "id",
          "type": "uint256"
        }
      ],
      "name": "deleteProject",
      "outputs": [
        {
          "internalType": "bool",
          "name": "",
          "type": "bool"
        }
      ],
      "stateMutability": "nonpayable",
      "type": "function"
    },
    {
      "inputs": [
        {
          "internalType": "uint256",
          "name": "id",
          "type": "uint256"
        }
      ],
      "name": "getBackers",
      "outputs": [
        {
          "components": [
            {
              "internalType": "address",
              "name": "owner",
              "type": "address"
            },
            {
              "internalType": "uint256",
              "name": "contribution",
              "type": "uint256"
            },
            {
              "internalType": "uint256",
              "name": "timestamp",
              "type": "uint256"
            },
            {
              "internalType": "bool",
              "name": "refunded",
              "type": "bool"
            },
            {
              "internalType": "string",
              "name": "title",
              "type": "string"
            }
          ],
          "internalType": "struct CrowdFunding.backerStruct[]",
          "name": "",
          "type": "tuple[]"
        }
      ],
      "stateMutability": "view",
      "type": "function"
    },
    {
      "inputs": [
        {
          "internalType": "uint256",
          "name": "id",
          "type": "uint256"
        }
      ],
      "name": "getProject",
      "outputs": [
        {
          "components": [
            {
              "internalType": "uint256",
              "name": "id",
              "type": "uint256"
            },
            {
              "internalType": "address",
              "name": "owner",
              "type": "address"
            },
            {
              "internalType": "string",
              "name": "title",
              "type": "string"
            },
            {
              "internalType": "string",
              "name": "description",
              "type": "string"
            },
            {
              "internalType": "string",
              "name": "imageURL",
              "type": "string"
            },
            {
              "internalType": "uint256",
              "name": "amount",
              "type": "uint256"
            },
            {
              "internalType": "uint256",
              "name": "raised",
              "type": "uint256"
            },
            {
              "internalType": "uint256",
              "name": "timestamp",
              "type": "uint256"
            },
            {
              "internalType": "uint256",
              "name": "expiresAt",
              "type": "uint256"
            },
            {
              "internalType": "uint256",
              "name": "backers",
              "type": "uint256"
            },
            {
              "internalType": "enum CrowdFunding.statusEnum",
              "name": "status",
              "type": "uint8"
            }
          ],
          "internalType": "struct CrowdFunding.projectStruct",
          "name": "",
          "type": "tuple"
        }
      ],
      "stateMutability": "view",
      "type": "function"
    },
    {
      "inputs": [],
      "name": "getProjects",
      "outputs": [
        {
          "components": [
            {
              "internalType": "uint256",
              "name": "id",
              "type": "uint256"
            },
            {
              "internalType": "address",
              "name": "owner",
              "type": "address"
            },
            {
              "internalType": "string",
              "name": "title",
              "type": "string"
            },
            {
              "internalType": "string",
              "name": "description",
              "type": "string"
            },
            {
              "internalType": "string",
              "name": "imageURL",
              "type": "string"
            },
            {
              "internalType": "uint256",
              "name": "amount",
              "type": "uint256"
            },
            {
              "internalType": "uint256",
              "name": "raised",
              "type": "uint256"
            },
            {
              "internalType": "uint256",
              "name": "timestamp",
              "type": "uint256"
            },
            {
              "internalType": "uint256",
              "name": "expiresAt",
              "type": "uint256"
            },
            {
              "internalType": "uint256",
              "name": "backers",
              "type": "uint256"
            },
            {
              "internalType": "enum CrowdFunding.statusEnum",
              "name": "status",
              "type": "uint8"
            }
          ],
          "internalType": "struct CrowdFunding.projectStruct[]",
          "name": "",
          "type": "tuple[]"
        }
      ],
      "stateMutability": "view",
      "type": "function"
    },
    {
      "inputs": [],
      "name": "owner",
      "outputs": [
        {
          "internalType": "address",
          "name": "",
          "type": "address"
        }
      ],
      "stateMutability": "view",
      "type": "function"
    },
    {
      "inputs": [
        {
          "internalType": "uint256",
          "name": "id",
          "type": "uint256"
        }
      ],
      "name": "payOutProject",
      "outputs": [
        {
          "internalType": "bool",
          "name": "",
          "type": "bool"
        }
      ],
      "stateMutability": "nonpayable",
      "type": "function"
    },
    {
      "inputs": [],
      "name": "projectCount",
      "outputs": [
        {
          "internalType": "uint256",
          "name": "",
          "type": "uint256"
        }
      ],
      "stateMutability": "view",
      "type": "function"
    },
    {
      "inputs": [
        {
          "internalType": "uint256",
          "name": "",
          "type": "uint256"
        }
      ],
      "name": "projectExist",
      "outputs": [
        {
          "internalType": "bool",
          "name": "",
          "type": "bool"
        }
      ],
      "stateMutability": "view",
      "type": "function"
    },
    {
      "inputs": [],
      "name": "projectTax",
      "outputs": [
        {
          "internalType": "uint256",
          "name": "",
          "type": "uint256"
        }
      ],
      "stateMutability": "view",
      "type": "function"
    },
    {
      "inputs": [
        {
          "internalType": "uint256",
          "name": "id",
          "type": "uint256"
        }
      ],
      "name": "requestRefund",
      "outputs": [
        {
          "internalType": "bool",
          "name": "",
          "type": "bool"
        }
      ],
      "stateMutability": "nonpayable",
      "type": "function"
    },
    {
      "inputs": [],
      "name": "stats",
      "outputs": [
        {
          "internalType": "uint256",
          "name": "totalProjects",
          "type": "uint256"
        },
        {
          "internalType": "uint256",
          "name": "totalBacking",
          "type": "uint256"
        },
        {
          "internalType": "uint256",
          "name": "totalDonations",
          "type": "uint256"
        }
      ],
      "stateMutability": "view",
      "type": "function"
    },
    {
      "inputs": [
        {
          "internalType": "uint256",
          "name": "id",
          "type": "uint256"
        },
        {
          "internalType": "string",
          "name": "title",
          "type": "string"
        },
        {
          "internalType": "string",
          "name": "description",
          "type": "string"
        },
        {
          "internalType": "string",
          "name": "imageURL",
          "type": "string"
        },
        {
          "internalType": "uint256",
          "name": "expiresAt",
          "type": "uint256"
        }
      ],
      "name": "updateProject",
      "outputs": [
        {
          "internalType": "bool",
          "name": "",
          "type": "bool"
        }
      ],
      "stateMutability": "nonpayable",
      "type": "function"
    }
  ],
  "bytecode": "0x60806040523480156200001157600080fd5b50604051620039de380380620039de8339818101604052810190620000379190620000c5565b336000806101000a81548173ffffffffffffffffffffffffffffffffffffffff021916908373ffffffffffffffffffffffffffffffffffffffff1602179055508060018190555050620000f7565b600080fd5b6000819050919050565b6200009f816200008a565b8114620000ab57600080fd5b50565b600081519050620000bf8162000094565b92915050565b600060208284031215620000de57620000dd62000085565b5b6000620000ee84828501620000ae565b91505092915050565b6138d780620001076000396000f3fe6080604052600436106100f35760003560e01c8063a4b2409e1161008a578063d24cd3ec11610059578063d24cd3ec1461037d578063d80528ae146103a8578063dcc60128146103d5578063f0f3f2c814610400576100f3565b8063a4b2409e1461029b578063b531dcba146102d8578063b69ef8a814610315578063c9168b7214610340576100f3565b80638593054b116100c65780638593054b146101c65780638da5cb5b146102035780639a3fa8c71461022e5780639f39a1941461026b576100f3565b8063056c29ee146100f857806336fbad26146101355780633e45c8af146101605780634cd0cb2814610189575b600080fd5b34801561010457600080fd5b5061011f600480360381019061011a919061240f565b61043d565b60405161012c91906124f9565b60405180910390f35b34801561014157600080fd5b5061014a61091b565b6040516101579190612523565b60405180910390f35b34801561016c57600080fd5b506101876004803603810190610182919061253e565b610921565b005b34801561019557600080fd5b506101b060048036038101906101ab919061253e565b6109b9565b6040516101bd91906124f9565b60405180910390f35b3480156101d257600080fd5b506101ed60048036038101906101e8919061253e565b610bb6565b6040516101fa91906124f9565b60405180910390f35b34801561020f57600080fd5b50610218610bd6565b60405161022591906125ac565b60405180910390f35b34801561023a57600080fd5b50610255600480360381019061025091906125c7565b610bfa565b60405161026291906124f9565b60405180910390f35b6102856004803603810190610280919061253e565b610e9b565b60405161029291906124f9565b60405180910390f35b3480156102a757600080fd5b506102c260048036038101906102bd919061253e565b611374565b6040516102cf91906124f9565b60405180910390f35b3480156102e457600080fd5b506102ff60048036038101906102fa919061253e565b6114d2565b60405161030c91906124f9565b60405180910390f35b34801561032157600080fd5b5061032a611688565b6040516103379190612523565b60405180910390f35b34801561034c57600080fd5b506103676004803603810190610362919061253e565b61168e565b604051610374919061287a565b60405180910390f35b34801561038957600080fd5b50610392611817565b60405161039f9190612523565b60405180910390f35b3480156103b457600080fd5b506103bd61181d565b6040516103cc9392919061289c565b60405180910390f35b3480156103e157600080fd5b506103ea611835565b6040516103f79190612b09565b60405180910390f35b34801561040c57600080fd5b506104276004803603810190610422919061253e565b611b18565b6040516104349190612c28565b60405180910390f35b600080865111610482576040517f08c379a000000000000000000000000000000000000000000000000000000000815260040161047990612ca7565b60405180910390fd5b60008551116104c6576040517f08c379a00000000000000000000000000000000000000000000000000000000081526004016104bd90612d13565b60405180910390fd5b600084511161050a576040517f08c379a000000000000000000000000000000000000000000000000000000000815260040161050190612d7f565b60405180910390fd5b6000831161054d576040517f08c379a000000000000000000000000000000000000000000000000000000000815260040161054490612deb565b60405180910390fd5b6105556121fd565b60025481600001818152505033816020019073ffffffffffffffffffffffffffffffffffffffff16908173ffffffffffffffffffffffffffffffffffffffff1681525050868160400181905250858160600181905250848160800181905250838160a0018181525050428160e0018181525050828161010001818152505060078190806001815401808255809150506001900390600052602060002090600b02016000909190919091506000820151816000015560208201518160010160006101000a81548173ffffffffffffffffffffffffffffffffffffffff021916908373ffffffffffffffffffffffffffffffffffffffff16021790555060408201518160020190816106659190613017565b50606082015181600301908161067b9190613017565b5060808201518160040190816106919190613017565b5060a0820151816005015560c0820151816006015560e082015181600701556101008201518160080155610120820151816009015561014082015181600a0160006101000a81548160ff021916908360048111156106f2576106f16128ff565b5b021790555050506001600a6000600254815260200190815260200160002060006101000a81548160ff021916908315150217905550600860003373ffffffffffffffffffffffffffffffffffffffff1673ffffffffffffffffffffffffffffffffffffffff1681526020019081526020016000208190806001815401808255809150506001900390600052602060002090600b02016000909190919091506000820151816000015560208201518160010160006101000a81548173ffffffffffffffffffffffffffffffffffffffff021916908373ffffffffffffffffffffffffffffffffffffffff16021790555060408201518160020190816107f69190613017565b50606082015181600301908161080c9190613017565b5060808201518160040190816108229190613017565b5060a0820151816005015560c0820151816006015560e082015181600701556101008201518160080155610120820151816009015561014082015181600a0160006101000a81548160ff02191690836004811115610883576108826128ff565b5b021790555050506001600460000160008282546108a09190613118565b925050819055503373ffffffffffffffffffffffffffffffffffffffff167faee8e5d3bbb2f71a951b5632cee20f7ac487b9f8ab4f66a236f7694b13af7c6a600260008154809291906108f29061314c565b91905055426040516109059291906131e0565b60405180910390a2600191505095945050505050565b60025481565b60008054906101000a900473ffffffffffffffffffffffffffffffffffffffff1673ffffffffffffffffffffffffffffffffffffffff163373ffffffffffffffffffffffffffffffffffffffff16146109af576040517f08c379a00000000000000000000000000000000000000000000000000000000081526004016109a690613268565b60405180910390fd5b8060018190555050565b60008060048111156109ce576109cd6128ff565b5b600783815481106109e2576109e1613288565b5b90600052602060002090600b0201600a0160009054906101000a900460ff166004811115610a1357610a126128ff565b5b14610a53576040517f08c379a0000000000000000000000000000000000000000000000000000000008152600401610a4a90613303565b60405180910390fd5b60078281548110610a6757610a66613288565b5b90600052602060002090600b020160010160009054906101000a900473ffffffffffffffffffffffffffffffffffffffff1673ffffffffffffffffffffffffffffffffffffffff163373ffffffffffffffffffffffffffffffffffffffff1614610b06576040517f08c379a0000000000000000000000000000000000000000000000000000000008152600401610afd9061336f565b60405180910390fd5b600360078381548110610b1c57610b1b613288565b5b90600052602060002090600b0201600a0160006101000a81548160ff02191690836004811115610b4f57610b4e6128ff565b5b0217905550610b5d82611e38565b3373ffffffffffffffffffffffffffffffffffffffff167faee8e5d3bbb2f71a951b5632cee20f7ac487b9f8ab4f66a236f7694b13af7c6a8342604051610ba59291906133db565b60405180910390a260019050919050565b600a6020528060005260406000206000915054906101000a900460ff1681565b60008054906101000a900473ffffffffffffffffffffffffffffffffffffffff1681565b600060078681548110610c1057610c0f613288565b5b90600052602060002090600b020160010160009054906101000a900473ffffffffffffffffffffffffffffffffffffffff1673ffffffffffffffffffffffffffffffffffffffff163373ffffffffffffffffffffffffffffffffffffffff1614610caf576040517f08c379a0000000000000000000000000000000000000000000000000000000008152600401610ca69061336f565b60405180910390fd5b6000855111610cf3576040517f08c379a0000000000000000000000000000000000000000000000000000000008152600401610cea90612ca7565b60405180910390fd5b6000845111610d37576040517f08c379a0000000000000000000000000000000000000000000000000000000008152600401610d2e90612d13565b60405180910390fd5b6000835111610d7b576040517f08c379a0000000000000000000000000000000000000000000000000000000008152600401610d7290612d7f565b60405180910390fd5b8460078781548110610d9057610d8f613288565b5b90600052602060002090600b02016002019081610dad9190613017565b508360078781548110610dc357610dc2613288565b5b90600052602060002090600b02016003019081610de09190613017565b508260078781548110610df657610df5613288565b5b90600052602060002090600b02016004019081610e139190613017565b508160078781548110610e2957610e28613288565b5b90600052602060002090600b0201600801819055503373ffffffffffffffffffffffffffffffffffffffff167faee8e5d3bbb2f71a951b5632cee20f7ac487b9f8ab4f66a236f7694b13af7c6a8742604051610e86929190613463565b60405180910390a26001905095945050505050565b6000606060003411610ee2576040517f08c379a0000000000000000000000000000000000000000000000000000000008152600401610ed9906134eb565b60405180910390fd5b600a600084815260200190815260200160002060009054906101000a900460ff16610f42576040517f08c379a0000000000000000000000000000000000000000000000000000000008152600401610f3990613557565b60405180910390fd5b60006004811115610f5657610f556128ff565b5b60078481548110610f6a57610f69613288565b5b90600052602060002090600b0201600a0160009054906101000a900460ff166004811115610f9b57610f9a6128ff565b5b14610fdb576040517f08c379a0000000000000000000000000000000000000000000000000000000008152600401610fd290613303565b60405180910390fd5b600160046001016000828254610ff19190613118565b92505081905550346004600201600082825461100d9190613118565b92505081905550346007848154811061102957611028613288565b5b90600052602060002090600b020160060160008282546110499190613118565b9250508190555060016007848154811061106657611065613288565b5b90600052602060002090600b020160090160008282546110869190613118565b92505081905550600960008481526020019081526020016000206040518060a001604052803373ffffffffffffffffffffffffffffffffffffffff16815260200134815260200142815260200160001515815260200183815250908060018154018082558091505060019003906000526020600020906005020160009091909190915060008201518160000160006101000a81548173ffffffffffffffffffffffffffffffffffffffff021916908373ffffffffffffffffffffffffffffffffffffffff160217905550602082015181600101556040820151816002015560608201518160030160006101000a81548160ff02191690831515021790555060808201518160040190816111999190613017565b5050503373ffffffffffffffffffffffffffffffffffffffff167faee8e5d3bbb2f71a951b5632cee20f7ac487b9f8ab4f66a236f7694b13af7c6a84426040516111e49291906135c3565b60405180910390a260078381548110611200576111ff613288565b5b90600052602060002090600b0201600501546007848154811061122657611225613288565b5b90600052602060002090600b020160060154106112dc5760016007848154811061125357611252613288565b5b90600052602060002090600b0201600a0160006101000a81548160ff02191690836004811115611286576112856128ff565b5b02179055506007838154811061129f5761129e613288565b5b90600052602060002090600b020160060154600360008282546112c29190613118565b925050819055506112d283611fd5565b600191505061136f565b600783815481106112f0576112ef613288565b5b90600052602060002090600b02016008015442106113695760026007848154811061131e5761131d613288565b5b90600052602060002090600b0201600a0160006101000a81548160ff02191690836004811115611351576113506128ff565b5b021790555061135f83611e38565b600191505061136f565b60019150505b919050565b60006002600481111561138a576113896128ff565b5b6007838154811061139e5761139d613288565b5b90600052602060002090600b0201600a0160009054906101000a900460ff1660048111156113cf576113ce6128ff565b5b1415806114335750600360048111156113eb576113ea6128ff565b5b600783815481106113ff576113fe613288565b5b90600052602060002090600b0201600a0160009054906101000a900460ff1660048111156114305761142f6128ff565b5b14155b611472576040517f08c379a000000000000000000000000000000000000000000000000000000000815260040161146990613671565b60405180910390fd5b60026007838154811061148857611487613288565b5b90600052602060002090600b0201600a0160006101000a81548160ff021916908360048111156114bb576114ba6128ff565b5b02179055506114c982611e38565b60019050919050565b6000600160048111156114e8576114e76128ff565b5b600783815481106114fc576114fb613288565b5b90600052602060002090600b0201600a0160009054906101000a900460ff16600481111561152d5761152c6128ff565b5b1461156d576040517f08c379a0000000000000000000000000000000000000000000000000000000008152600401611564906136dd565b60405180910390fd5b6007828154811061158157611580613288565b5b90600052602060002090600b020160010160009054906101000a900473ffffffffffffffffffffffffffffffffffffffff1673ffffffffffffffffffffffffffffffffffffffff163373ffffffffffffffffffffffffffffffffffffffff161480611637575060008054906101000a900473ffffffffffffffffffffffffffffffffffffffff1673ffffffffffffffffffffffffffffffffffffffff163373ffffffffffffffffffffffffffffffffffffffff16145b611676576040517f08c379a000000000000000000000000000000000000000000000000000000000815260040161166d9061336f565b60405180910390fd5b61167f82611fd5565b60019050919050565b60035481565b606060096000838152602001908152602001600020805480602002602001604051908101604052809291908181526020016000905b8282101561180c57838290600052602060002090600502016040518060a00160405290816000820160009054906101000a900473ffffffffffffffffffffffffffffffffffffffff1673ffffffffffffffffffffffffffffffffffffffff1673ffffffffffffffffffffffffffffffffffffffff16815260200160018201548152602001600282015481526020016003820160009054906101000a900460ff1615151515815260200160048201805461177b90612e3a565b80601f01602080910402602001604051908101604052809291908181526020018280546117a790612e3a565b80156117f45780601f106117c9576101008083540402835291602001916117f4565b820191906000526020600020905b8154815290600101906020018083116117d757829003601f168201915b505050505081525050815260200190600101906116c3565b505050509050919050565b60015481565b60048060000154908060010154908060020154905083565b60606007805480602002602001604051908101604052809291908181526020016000905b82821015611b0f57838290600052602060002090600b020160405180610160016040529081600082015481526020016001820160009054906101000a900473ffffffffffffffffffffffffffffffffffffffff1673ffffffffffffffffffffffffffffffffffffffff1673ffffffffffffffffffffffffffffffffffffffff1681526020016002820180546118ed90612e3a565b80601f016020809104026020016040519081016040528092919081815260200182805461191990612e3a565b80156119665780601f1061193b57610100808354040283529160200191611966565b820191906000526020600020905b81548152906001019060200180831161194957829003601f168201915b5050505050815260200160038201805461197f90612e3a565b80601f01602080910402602001604051908101604052809291908181526020018280546119ab90612e3a565b80156119f85780601f106119cd576101008083540402835291602001916119f8565b820191906000526020600020905b8154815290600101906020018083116119db57829003601f168201915b50505050508152602001600482018054611a1190612e3a565b80601f0160208091040260200160405190810160405280929190818152602001828054611a3d90612e3a565b8015611a8a5780601f10611a5f57610100808354040283529160200191611a8a565b820191906000526020600020905b815481529060010190602001808311611a6d57829003601f168201915b505050505081526020016005820154815260200160068201548152602001600782015481526020016008820154815260200160098201548152602001600a820160009054906101000a900460ff166004811115611aea57611ae96128ff565b5b6004811115611afc57611afb6128ff565b5b8152505081526020019060010190611859565b50505050905090565b611b206121fd565b600a600083815260200190815260200160002060009054906101000a900460ff16611b80576040517f08c379a0000000000000000000000000000000000000000000000000000000008152600401611b7790613557565b60405180910390fd5b60078281548110611b9457611b93613288565b5b90600052602060002090600b020160405180610160016040529081600082015481526020016001820160009054906101000a900473ffffffffffffffffffffffffffffffffffffffff1673ffffffffffffffffffffffffffffffffffffffff1673ffffffffffffffffffffffffffffffffffffffff168152602001600282018054611c1e90612e3a565b80601f0160208091040260200160405190810160405280929190818152602001828054611c4a90612e3a565b8015611c975780601f10611c6c57610100808354040283529160200191611c97565b820191906000526020600020905b815481529060010190602001808311611c7a57829003601f168201915b50505050508152602001600382018054611cb090612e3a565b80601f0160208091040260200160405190810160405280929190818152602001828054611cdc90612e3a565b8015611d295780601f10611cfe57610100808354040283529160200191611d29565b820191906000526020600020905b815481529060010190602001808311611d0c57829003601f168201915b50505050508152602001600482018054611d4290612e3a565b80601f0160208091040260200160405190810160405280929190818152602001828054611d6e90612e3a565b8015611dbb5780601f10611d9057610100808354040283529160200191611dbb565b820191906000526020600020905b815481529060010190602001808311611d9e57829003601f168201915b505050505081526020016005820154815260200160068201548152602001600782015481526020016008820154815260200160098201548152602001600a820160009054906101000a900460ff166004811115611e1b57611e1a6128ff565b5b6004811115611e2d57611e2c6128ff565b5b815250509050919050565b60005b6009600083815260200190815260200160002080549050811015611fd1576000600960008481526020019081526020016000208281548110611e8057611e7f613288565b5b906000526020600020906005020160000160009054906101000a900473ffffffffffffffffffffffffffffffffffffffff1690506000600960008581526020019081526020016000208381548110611edb57611eda613288565b5b90600052602060002090600502016001015490506001600960008681526020019081526020016000208481548110611f1657611f15613288565b5b906000526020600020906005020160030160006101000a81548160ff02191690831515021790555042600960008681526020019081526020016000208481548110611f6457611f63613288565b5b906000526020600020906005020160020181905550611f838282612182565b600160046001016000828254611f9991906136fd565b925050819055508060046002016000828254611fb591906136fd565b9250508190555050508080611fc99061314c565b915050611e3b565b5050565b600060078281548110611feb57611fea613288565b5b90600052602060002090600b020160060154905060006064600154836120119190613731565b61201b91906137a2565b905060046007848154811061203357612032613288565b5b90600052602060002090600b0201600a0160006101000a81548160ff02191690836004811115612066576120656128ff565b5b02179055506120c56007848154811061208257612081613288565b5b90600052602060002090600b020160010160009054906101000a900473ffffffffffffffffffffffffffffffffffffffff1682846120c091906136fd565b612182565b6120ef60008054906101000a900473ffffffffffffffffffffffffffffffffffffffff1682612182565b6007838154811061210357612102613288565b5b90600052602060002090600b0201600601546003600082825461212691906136fd565b925050819055503373ffffffffffffffffffffffffffffffffffffffff167faee8e5d3bbb2f71a951b5632cee20f7ac487b9f8ab4f66a236f7694b13af7c6a844260405161217592919061381f565b60405180910390a2505050565b60008273ffffffffffffffffffffffffffffffffffffffff16826040516121a89061388c565b60006040518083038185875af1925050503d80600081146121e5576040519150601f19603f3d011682016040523d82523d6000602084013e6121ea565b606091505b50509050806121f857600080fd5b505050565b60405180610160016040528060008152602001600073ffffffffffffffffffffffffffffffffffffffff168152602001606081526020016060815260200160608152602001600081526020016000815260200160008152602001600081526020016000815260200160006004811115612279576122786128ff565b5b81525090565b6000604051905090565b600080fd5b600080fd5b600080fd5b600080fd5b6000601f19601f8301169050919050565b7f4e487b7100000000000000000000000000000000000000000000000000000000600052604160045260246000fd5b6122e68261229d565b810181811067ffffffffffffffff82111715612305576123046122ae565b5b80604052505050565b600061231861227f565b905061232482826122dd565b919050565b600067ffffffffffffffff821115612344576123436122ae565b5b61234d8261229d565b9050602081019050919050565b82818337600083830152505050565b600061237c61237784612329565b61230e565b90508281526020810184848401111561239857612397612298565b5b6123a384828561235a565b509392505050565b600082601f8301126123c0576123bf612293565b5b81356123d0848260208601612369565b91505092915050565b6000819050919050565b6123ec816123d9565b81146123f757600080fd5b50565b600081359050612409816123e3565b92915050565b600080600080600060a0868803121561242b5761242a612289565b5b600086013567ffffffffffffffff8111156124495761244861228e565b5b612455888289016123ab565b955050602086013567ffffffffffffffff8111156124765761247561228e565b5b612482888289016123ab565b945050604086013567ffffffffffffffff8111156124a3576124a261228e565b5b6124af888289016123ab565b93505060606124c0888289016123fa565b92505060806124d1888289016123fa565b9150509295509295909350565b60008115159050919050565b6124f3816124de565b82525050565b600060208201905061250e60008301846124ea565b92915050565b61251d816123d9565b82525050565b60006020820190506125386000830184612514565b92915050565b60006020828403121561255457612553612289565b5b6000612562848285016123fa565b91505092915050565b600073ffffffffffffffffffffffffffffffffffffffff82169050919050565b60006125968261256b565b9050919050565b6125a68161258b565b82525050565b60006020820190506125c1600083018461259d565b92915050565b600080600080600060a086880312156125e3576125e2612289565b5b60006125f1888289016123fa565b955050602086013567ffffffffffffffff8111156126125761261161228e565b5b61261e888289016123ab565b945050604086013567ffffffffffffffff81111561263f5761263e61228e565b5b61264b888289016123ab565b935050606086013567ffffffffffffffff81111561266c5761266b61228e565b5b612678888289016123ab565b9250506080612689888289016123fa565b9150509295509295909350565b600081519050919050565b600082825260208201905092915050565b6000819050602082019050919050565b6126cb8161258b565b82525050565b6126da816123d9565b82525050565b6126e9816124de565b82525050565b600081519050919050565b600082825260208201905092915050565b60005b8381101561272957808201518184015260208101905061270e565b60008484015250505050565b6000612740826126ef565b61274a81856126fa565b935061275a81856020860161270b565b6127638161229d565b840191505092915050565b600060a08301600083015161278660008601826126c2565b50602083015161279960208601826126d1565b5060408301516127ac60408601826126d1565b5060608301516127bf60608601826126e0565b50608083015184820360808601526127d78282612735565b9150508091505092915050565b60006127f0838361276e565b905092915050565b6000602082019050919050565b600061281082612696565b61281a81856126a1565b93508360208202850161282c856126b2565b8060005b85811015612868578484038952815161284985826127e4565b9450612854836127f8565b925060208a01995050600181019050612830565b50829750879550505050505092915050565b600060208201905081810360008301526128948184612805565b905092915050565b60006060820190506128b16000830186612514565b6128be6020830185612514565b6128cb6040830184612514565b949350505050565b600081519050919050565b600082825260208201905092915050565b6000819050602082019050919050565b7f4e487b7100000000000000000000000000000000000000000000000000000000600052602160045260246000fd5b6005811061293f5761293e6128ff565b5b50565b60008190506129508261292e565b919050565b600061296082612942565b9050919050565b61297081612955565b82525050565b60006101608301600083015161298f60008601826126d1565b5060208301516129a260208601826126c2565b50604083015184820360408601526129ba8282612735565b915050606083015184820360608601526129d48282612735565b915050608083015184820360808601526129ee8282612735565b91505060a0830151612a0360a08601826126d1565b5060c0830151612a1660c08601826126d1565b5060e0830151612a2960e08601826126d1565b50610100830151612a3e6101008601826126d1565b50610120830151612a536101208601826126d1565b50610140830151612a68610140860182612967565b508091505092915050565b6000612a7f8383612976565b905092915050565b6000602082019050919050565b6000612a9f826128d3565b612aa981856128de565b935083602082028501612abb856128ef565b8060005b85811015612af75784840389528151612ad88582612a73565b9450612ae383612a87565b925060208a01995050600181019050612abf565b50829750879550505050505092915050565b60006020820190508181036000830152612b238184612a94565b905092915050565b600061016083016000830151612b4460008601826126d1565b506020830151612b5760208601826126c2565b5060408301518482036040860152612b6f8282612735565b91505060608301518482036060860152612b898282612735565b91505060808301518482036080860152612ba38282612735565b91505060a0830151612bb860a08601826126d1565b5060c0830151612bcb60c08601826126d1565b5060e0830151612bde60e08601826126d1565b50610100830151612bf36101008601826126d1565b50610120830151612c086101208601826126d1565b50610140830151612c1d610140860182612967565b508091505092915050565b60006020820190508181036000830152612c428184612b2b565b905092915050565b600082825260208201905092915050565b7f5469746c652063616e6e6f7420626520656d7074790000000000000000000000600082015250565b6000612c91601583612c4a565b9150612c9c82612c5b565b602082019050919050565b60006020820190508181036000830152612cc081612c84565b9050919050565b7f4465736372697074696f6e2063616e6e6f7420626520656d7074790000000000600082015250565b6000612cfd601b83612c4a565b9150612d0882612cc7565b602082019050919050565b60006020820190508181036000830152612d2c81612cf0565b9050919050565b7f496d61676555524c2063616e6e6f7420626520656d7074790000000000000000600082015250565b6000612d69601883612c4a565b9150612d7482612d33565b602082019050919050565b60006020820190508181036000830152612d9881612d5c565b9050919050565b7f616d6f756e742063616e6e6f74206265207a65726f0000000000000000000000600082015250565b6000612dd5601583612c4a565b9150612de082612d9f565b602082019050919050565b60006020820190508181036000830152612e0481612dc8565b9050919050565b7f4e487b7100000000000000000000000000000000000000000000000000000000600052602260045260246000fd5b60006002820490506001821680612e5257607f821691505b602082108103612e6557612e64612e0b565b5b50919050565b60008190508160005260206000209050919050565b60006020601f8301049050919050565b600082821b905092915050565b600060088302612ecd7fffffffffffffffffffffffffffffffffffffffffffffffffffffffffffffffff82612e90565b612ed78683612e90565b95508019841693508086168417925050509392505050565b6000819050919050565b6000612f14612f0f612f0a846123d9565b612eef565b6123d9565b9050919050565b6000819050919050565b612f2e83612ef9565b612f42612f3a82612f1b565b848454612e9d565b825550505050565b600090565b612f57612f4a565b612f62818484612f25565b505050565b5b81811015612f8657612f7b600082612f4f565b600181019050612f68565b5050565b601f821115612fcb57612f9c81612e6b565b612fa584612e80565b81016020851015612fb4578190505b612fc8612fc085612e80565b830182612f67565b50505b505050565b600082821c905092915050565b6000612fee60001984600802612fd0565b1980831691505092915050565b60006130078383612fdd565b9150826002028217905092915050565b613020826126ef565b67ffffffffffffffff811115613039576130386122ae565b5b6130438254612e3a565b61304e828285612f8a565b600060209050601f831160018114613081576000841561306f578287015190505b6130798582612ffb565b8655506130e1565b601f19841661308f86612e6b565b60005b828110156130b757848901518255600182019150602085019450602081019050613092565b868310156130d457848901516130d0601f891682612fdd565b8355505b6001600288020188555050505b505050505050565b7f4e487b7100000000000000000000000000000000000000000000000000000000600052601160045260246000fd5b6000613123826123d9565b915061312e836123d9565b9250828201905080821115613146576131456130e9565b5b92915050565b6000613157826123d9565b91507fffffffffffffffffffffffffffffffffffffffffffffffffffffffffffffffff8203613189576131886130e9565b5b600182019050919050565b7f50524f4a45435420435245415445440000000000000000000000000000000000600082015250565b60006131ca600f83612c4a565b91506131d582613194565b602082019050919050565b60006060820190506131f56000830185612514565b8181036020830152613206816131bd565b90506132156040830184612514565b9392505050565b7f4f776e6572207265736572766564206f6e6c7900000000000000000000000000600082015250565b6000613252601383612c4a565b915061325d8261321c565b602082019050919050565b6000602082019050818103600083015261328181613245565b9050919050565b7f4e487b7100000000000000000000000000000000000000000000000000000000600052603260045260246000fd5b7f50726f6a656374206e6f206c6f6e676572206f70656e65640000000000000000600082015250565b60006132ed601883612c4a565b91506132f8826132b7565b602082019050919050565b6000602082019050818103600083015261331c816132e0565b9050919050565b7f556e617574686f72697a656420456e7469747900000000000000000000000000600082015250565b6000613359601383612c4a565b915061336482613323565b602082019050919050565b600060208201905081810360008301526133888161334c565b9050919050565b7f50524f4a4543542044454c455445440000000000000000000000000000000000600082015250565b60006133c5600f83612c4a565b91506133d08261338f565b602082019050919050565b60006060820190506133f06000830185612514565b8181036020830152613401816133b8565b90506134106040830184612514565b9392505050565b7f50524f4a45435420555044415445440000000000000000000000000000000000600082015250565b600061344d600f83612c4a565b915061345882613417565b602082019050919050565b60006060820190506134786000830185612514565b818103602083015261348981613440565b90506134986040830184612514565b9392505050565b7f4574686572206d7573742062652067726561746572207468616e207a65726f00600082015250565b60006134d5601f83612c4a565b91506134e08261349f565b602082019050919050565b60006020820190508181036000830152613504816134c8565b9050919050565b7f50726f6a656374206e6f7420666f756e64000000000000000000000000000000600082015250565b6000613541601183612c4a565b915061354c8261350b565b602082019050919050565b6000602082019050818103600083015261357081613534565b9050919050565b7f50524f4a454354204241434b4544000000000000000000000000000000000000600082015250565b60006135ad600e83612c4a565b91506135b882613577565b602082019050919050565b60006060820190506135d86000830185612514565b81810360208301526135e9816135a0565b90506135f86040830184612514565b9392505050565b7f50726f6a656374206e6f74206d61726b656420617320726576657274206f722060008201527f64656c6574650000000000000000000000000000000000000000000000000000602082015250565b600061365b602683612c4a565b9150613666826135ff565b604082019050919050565b6000602082019050818103600083015261368a8161364e565b9050919050565b7f50726f6a656374206e6f7420415050524f564544000000000000000000000000600082015250565b60006136c7601483612c4a565b91506136d282613691565b602082019050919050565b600060208201905081810360008301526136f6816136ba565b9050919050565b6000613708826123d9565b9150613713836123d9565b925082820390508181111561372b5761372a6130e9565b5b92915050565b600061373c826123d9565b9150613747836123d9565b9250828202613755816123d9565b9150828204841483151761376c5761376b6130e9565b5b5092915050565b7f4e487b7100000000000000000000000000000000000000000000000000000000600052601260045260246000fd5b60006137ad826123d9565b91506137b8836123d9565b9250826137c8576137c7613773565b5b828204905092915050565b7f50524f4a4543542050414944204f555400000000000000000000000000000000600082015250565b6000613809601083612c4a565b9150613814826137d3565b602082019050919050565b60006060820190506138346000830185612514565b8181036020830152613845816137fc565b90506138546040830184612514565b9392505050565b600081905092915050565b50565b600061387660008361385b565b915061388182613866565b600082019050919050565b600061389782613869565b915081905091905056fea2646970667358221220c8c1001737b0692d7906d10e48f2fbc6656a15b7bfb2c9f58117e6e49582776064736f6c63430008120033",
  "linkReferences": {},
  "deployedLinkReferences": {}
}